:020000021000EC
:10C00000BC5C00206DC2010055C2010049C20100A4
:10C0100055C201003DC2010031C201000000000014
:10C0200000000000000000000000000055C20100F8
:10C0300055C201000000000055C2010061C20100AC
:10C0400055C2010055C2010055C2010055C2010090
:10C0500055C2010055C201004D0A020055C201003F
:10C0600055C2010055C2010055C2010055C2010070
:10C0700055C2010055C2010055C2010055C2010060
:10C0800055C2010099FF010055C2010055C20100CF
:10C0900055C2010055C2010055E3010055C201001F
:10C0A00055C2010055C2010055C2010055C2010030
:10C0B00055C2010055C20100000000000000000050
:10C0C00055C2010055C2010055C2010055C2010010
:10C0D00055C2010055C2010055C2010055C2010000
:10C0E00055C2010000000000000000000000000038
:10C0F0000000000055C201000000000055C2010010
:10C10000000000000000000000000000000000002F
:10C11000000000000000000000000000000000001F
:10C12000000000000000000000000000000000000F
:10C1300000000000000000000000000000000000FF
:10C1400000000000000000000000000000000000EF
:10C1500000000000000000000000000000000000DF
:10C1600000000000000000000000000000000000CF
:10C1700000000000000000000000000000000000BF
:10C1800000000000000000000000000000000000AF
:10C19000000000000000000000000000000000009F
:10C1A000000000000000000000000000000000008F
:10C1B000000000000000000000000000000000007F
:10C1C000000000000000000000000000000000006F
:10C1D000000000000000000000000000000000005F
:10C1E000000000000000000000000000000000004F
:10C1F000000000000000000000000000000000003F
:10C2000038B5064D0C4622460146284606F0A6F8EB
:10C21000A1B22846BDE8384000F04CBA802D00207D
:10C2200008B5024800F0A8FAFEE700BF01C201000D
:10C230004FF0FF320221042000F0C4B84FF0FF326B
:10C240000121042000F0BEB84FF0FF32002104208D
:10C2500000F0B8B804214FF0FF32084600F0B2B841
:10C2600004214FF0FF32084600F0ACB82449254CB9
:10C27000A14280B521D2631E5B1A9E08032B0A4699
:10C2800006F101063AD9204F750807EBC5053B4674
:10C29000D3F800C05868C2F800C008339D4250600F
:10C2A00002F10802F4D1F20707D526F0010607EBE8
:10C2B000860301EB86021B681360144B9C4218D264
:10C2C000013B1A1B9008032A0E4B00F101000ED906
:10C2D000410804EBC10100221A605A6008338B4206
:10C2E000FAD1C30705D520F0010004EB800300223A
:10C2F0001A6000F00DF8FFF793FFFEE7024BDAE754
:10C3000008260020802D0020FCA40200BC3C002058
:10C3100010B44FF0E0220849D2F8883D4FF0804039
:10C3200043F47003C2F8883D0124044B04600B60A1
:10C330005DF8044B704700BF802E00200090D003B2
:10C340004FF47A7300BF00BF00BF00BF00BF00BF43
:10C3500000BF00BF00BF00BF00BF00BF00BF00BFE5
:10C3600000BF00BF00BF00BF00BF00BF00BF00BFD5
:10C3700000BF00BF00BF00BF00BF00BF00BF00BFC5
:10C3800000BF00BF00BF00BF00BF00BF00BF00BFB5
:10C3900000BF00BF00BF00BF00BF00BF00BF00BFA5
:10C3A00000BF00BF00BF00BF00BF00BF00BF00BF95
:10C3B00000BF00BF00BF00BF00BF00BF013BC1D135
:10C3C000704700BF154B2DE9F04114460646585CF6
:10C3D000134F884600F034F8621C01D0002C17DDA2
:10C3E000BD5D284600F01EF84FF4FA72FFF7A8FF73
:10C3F000013AFBD1284600F023F84FF4FA72FFF718
:10C400009FFF013AFBD1631CEBD0013C002CE7DC21
:10C4100017F80800BDE8F04100F004B81C940200D1
:10C42000249402001F288ABF034A044A20380123AB
:10C4300083401360704700BF080800500805005093
:10C440001F288ABF034A044A20380123834013600F
:10C45000704700BF0C0800500C05005076DF704795
:10C460007ADF70477CDF70477FDF70478FDF704770
:10C47000B1DF704733DF704702F0A0B910B5038811
:10C48000212B82B0044613D80F2B0FD9103B112B50
:10C490000CD8DFE803F028400B500B0B0B0B0B0BF9
:10C4A0000B0B0B0B0B0B0B1C3B2B05D002B010BD69
:10C4B000522B4AD0562BF7D1A0881321FFF7CEFF7D
:10C4C0000028F3D002B0BDE8104002F077B9002395
:10C4D0008088ADF8043001A9FFF7C8FF0028E5D037
:10C4E00002F06CF9E2E71F4B1F482049C01AC00850
:10C4F000000440F0030001F017FB072000F02EFDC0
:10C5000000282CD11A4BA1881A48198000F042FF4C
:10C510000028CBD0D6E7134B13481749C01AC008E0
:10C52000000440F0030001F0FFFA114B4FF6FF72D8
:10C530001A8002B010BD0E4A0023108885211A46C9
:10C54000FFF792FF0028B1D0BCE7094A002310880A
:10C5500019461A46FFF78CFF0028A7D0B2E702F071
:10C560002DF9CFE794A402009CA402002C940200B1
:10C570000E260020743000203894020008B503789D
:10C5800003B108BD054B3B211888FFF767FF002862
:10C59000F7D0BDE8084002F011B900BF0E26002018
:10C5A000072808B51CD00A280ED0042800D008BDE2
:10C5B000154B13211888FFF751FF30F00803F6D010
:10C5C000BDE8084002F0FAB8002000F0C7FCB8B996
:10C5D00000F072FA88B9FFF74DFF0028F0D108BDCE
:10C5E000094A12884FF6FF739A42E0D1074802F0D9
:10C5F0001DFE30F00803E3D1D9E702F0DFF8EAE7E7
:10C6000002F0DCF8E4E700BF0E2600207C2F0020BB
:10C610000D4B4A881B889A4200D070470A8840F622
:10C6200077239A42F9D1094A09488B880949801A27
:10C63000033B094AC0089BB20004138040F003008A
:10C640001A4601F0AFB800BF0E26002094A40200E5
:10C650009CA40200489402000C260020037823B911
:10C66000024B818A1B680069184770479830002088
:10C6700002F0A4B808B530B1032803D1022000F0BD
:10C680006DFC50B908BD00F069FC50B900F014FA17
:10C6900068B9FFF7EFFE0028F4D0BDE8084002F0CB
:10C6A0008DB802F08BF800F007FA0028F1D002F004
:10C6B00085F8EEE72DE9F04F85B0019189B3284C5C
:10C6C000DFF8A4A094F800C0DFF8A490DFF8A480FD
:10C6D000451E4FF0000B0CF1010215F8011F0AF87E
:10C6E0000C105FFA82FC0AEB0C0284F800C012F80E
:10C6F000012C0A2A09D00D2A07D0019B5A1E5A453F
:10C7000003D0184A1288624506D8BCF1000F0BD13D
:10C710004FF0000C84F800C0019B0BF1010B5B454E
:10C72000D9D105B0BDE8F08F0F4F104EB9F80030E9
:10C73000ADF80EC00DF10E023946304603F026F872
:10C74000082828FA00F3E3D0132801D8DB0702D425
:10C7500002F034F8DCE71328DAD194F800C0E5E7FA
:10C76000782F00200C260020842E00201026002088
:10C770000E2600202100080010B54FF48041ACB017
:10C780000446002000F098FE002840F0C88000F029
:10C7900083FE02F0E9F9002840F0CA8088490320AE
:10C7A00000F0E8FB002840F0CC8001A9002000F058
:10C7B00095F9002840F0CE8001F0B4FB002840F04D
:10C7C000D08001F0BDFD002840F0D280002301A9F7
:10C7D0000120019301F006FC002840F0ED8001A843
:10C7E00001F0D8FC002840F0E480112375488DF852
:10C7F000003005F065FE734982B26846FFF732FEED
:10C80000002840F0D3800822002101A805F014FC84
:10C810006D4A4FF0C87301A8CDE90123FFF720FE50
:10C82000002840F0C0806949694800F093FC002866
:10C8300040F0B6806648F72100F0A4FC002840F0E4
:10C84000AC80644B6448019301A900F091FD00287D
:10C8500040F0A08000210422684605F0EDFB5F4B0C
:10C860005F480093694602F01FFF002840F08F8068
:10C87000AC22002101A805F0DFFB012359491591E5
:10C8800002204021ADF850308DF8803044F25063E2
:10C89000554A8DF804002391249354482A924FF46A
:10C8A000A06301A9ADF8063002F0FAFB00286BD1B5
:10C8B0004E48012102F0F0FB1C22002101A805F0E6
:10C8C000BBFB00234A4A4B4901934FF4A03002902E
:10C8D000ADF812308DF81430079203234FF4F02294
:10C8E00001A8069103928DF8103002F0FFFD002898
:10C8F00047D1414805F050FC404A414B41499B1A01
:10C90000DB081B0443F0030001F00EF93748032154
:10C9100002F040FC78BB3C4B1C602CB010BD01F019
:10C920004DFF00F0B9FD02F01FF900283FF436AFCB
:10C9300001F044FF2249032000F01CFB00283FF4D3
:10C9400034AF01F03BFF01A9002000F0C7F8002838
:10C950003FF432AF01F032FF01F0E4FA00283FF477
:10C9600030AF01F02BFF01F0EBFC00283FF42EAFBD
:10C9700001F024FF2AE701F021FF234B1C602CB0BB
:10C9800010BD01F01BFFB4E701F018FF90E701F0C4
:10C9900015FF6DE701F012FF5CE701F00FFF50E7B4
:10C9A00001F00CFF46E701F009FF3CE701F006FF4C
:10C9B00029E701F003FF18E701F000FF0FE700BFD0
:10C9C000A1C501006494020010003C0011C60100E2
:10C9D0008030002079C40100743000205DC6010061
:10C9E000102600200826002075C601007C2F00209C
:10C9F00071C601007DC501007494020094A4020078
:10CA00009CA40200889402009830002010B503888E
:10CA1000102B07D0112B04D1254B18680138186052
:10CA200030B110BD224C216811B30131216010BD1D
:10CA30000122022100F0F8FA40B1072806D01D4B70
:10CA40001B68002BEDD0BDE81040184707220221DB
:10CA5000012000F0E9FA08B10728F0D100210A22EC
:10CA6000084600F0E1FA0028DBD00728D9D0E6E735
:10CA70000122084600F0D8FA38B1072805D00D4B3E
:10CA80001B6803B198472168CFE7072202210120E4
:10CA900000F0CAFA08B10728F1D1042202210020CF
:10CAA00000F0C2FA0028EED00728ECD0E7E700BF7C
:10CAB0009C300020A030002008B5002000F0DEFAF5
:10CAC00010B1062800D008BD012000F0D7FA0028D8
:10CAD000F9D0062808BF002008BD00BF184B10B5CC
:10CAE000186031B101200C4600F032FAF8B102238F
:10CAF0002370144B186808B1002010BD01220221D8
:10CB000000F092FA08B10728F7D10722022101208C
:10CB100000F08AFA08B10728EFD100210A2208465E
:10CB200000F082FA0028E7D00728E5D010BD00F019
:10CB30000FFA10B10B232370DBE72070D9E700BF99
:10CB4000A03000209C300020022003F02BB800BF52
:10CB50002DE9F04706460D4603F052F8012801D9A9
:10CB6000BDE8F087012D04461FD0022D17D0002DFF
:10CB7000F6D11C4802F0A4F81B4B1C4A04EB4401FC
:10CB80000B44125D9D78AA42EAD1002DE8D0184BE3
:10CB90001B68002BE4D02846BDE8F0471847124B2D
:10CBA00000EB400423445D78EFE70F4F00EB4003B8
:10CBB000FA18FD5C53784FEA40082BB9A04447446B
:10CBC0000A4BBA781A55E0E7DFF8289005484A463C
:10CBD0004FF4804102F018F80028EFD189F8006086
:10CBE000ECE700BF38260020A8300020A430002049
:10CBF000B0300020A630002010B5007803F000F817
:10CC0000012800D910BD074B00EB400003445878C1
:10CC10000028F7D0044B1B68002BF3D0BDE8104070
:10CC2000184700BFA8300020B030002070B5BC4EBF
:10CC30003378054673B1BB4B1B7800243470002B4E
:10CC40004DD0022C08BF03242046013402F038FFE7
:10CC50000A2CF6D1172D61D8DFE815F0E800630043
:10CC60006300FE002901810095007A005000440015
:10CC700050004400E20018001800180018001800C6
:10CC8000A300B600CC0011015C005C00A64802F0D5
:10CC900017F8D5F11105044600F02C81002840F06A
:10CCA0002981012D14D0C82303FB05F521464FF43B
:10CCB00000434FF47A70C5FB03014FF4FA6200237E
:10CCC0000CF0E4F922460146974801F09DFF044626
:10CCD000022002F0E3FE934B01221A701FE002F0E3
:10CCE00001FFB7E70120307002F05CFFBDE8704043
:10CCF0008E4800224FF4005101F086BF01203070B1
:10CD000002F050FFBDE870408848002240F26661A2
:10CD100001F07ABF02F016FF854B1D7000242046FB
:10CD200070BD002002F0A6FE002840F0CC8002F08A
:10CD3000B5FE40F6CD4141F69A13022D18BF1946B3
:10CD40007B4B7A481D70BDE87040002201F05CBF4B
:10CD5000002002F0A3FE764B07221A70DEE70020C7
:10CD600002F088FE002800F0C280002002F0A8FE39
:10CD70006F4B6E4805241C70BDE87040002240F6E1
:10CD8000CD4101F041BF002002F00CFF684B674825
:10CD900006241C70BDE87040002240F2666101F07C
:10CDA00033BF604B1B78002B00F0B4800024022CB2
:10CDB00008BF03242046013402F082FE0A2CF6D17B
:10CDC0005B4B12221A70A9E7564B1B78002B00F020
:10CDD0009E800024022C08BF03242046013402F068
:10CDE0006FFE0A2CF6D1002002F058FE504B1322A1
:10CDF0001A7093E74B4B1B78002B00F085800024C2
:10CE0000022C08BF03242046013402F059FE0A2CEC
:10CE1000F6D1012002F042FE454B14221A707DE744
:10CE200002F090FE424B0C221A7077E73D4B1B78C4
:10CE3000002B72D00024022C08BF032420460134AA
:10CE400002F03EFE0A2CF6D1384801F039FF384B8B
:10CE5000002204461A7062E7002002F00BFE002850
:10CE600040D0002002F02CFE43F23331304B03243B
:10CE70001C70BDE870402D48002201F0C5BE294B52
:10CE80001B78002B3DD00024022C08BF0324204631
:10CE9000013402F015FE0A2CF6D1002002F0FEFD4E
:10CEA000012002F0FBFD224B15221A7036E700200C
:10CEB00002F0E0FD88B1002002F002FE4FF4803164
:10CEC0001B4B0424D4E7002002F0FAFD022D47F2A8
:10CED000333118BF4FF4803132E702F0DFFD41F605
:10CEE0009A11EDE702F0DAFD40F6CD41BEE702F01F
:10CEF000D5FD3DE7022002F0E3FD0A4B00221A7047
:10CF00000DE702F0EFFDC8E702F0ECFD81E702F06B
:10CF1000E9FD68E702F0E6FD52E702F0E3FD93E782
:10CF2000BC300020B4300020582600207826002095
:10CF3000BD300020044B1B68DB0700D47047034B57
:10CF40001878FFF773BE00BFB8300020BD30002056
:10CF5000012801D90020704702F03EBE044B1B6837
:10CF600013F0010301D118467047FFF75FBE00BF01
:10CF7000B830002038B5224B224A19608107044698
:10CF8000106004D410F0010528D1284638BD1E4B8E
:10CF90001E480E210F221970DA70022140F233323E
:10CFA00001F09AFB054630B1E207EED5012002F010
:10CFB00037FE284638BD01F0EBFB05460028F3D1CB
:10CFC0000146134A134801F007FEE3070546DCD586
:10CFD000012002F025FE002DD7D102E0012002F051
:10CFE0001FFE0D4A0D48002101F0F6FD0546002800
:10CFF000CBD1BDE838400A4A0A48012101F0ECBD16
:10D00000B0300020B8300020A8300020B4940200D6
:10D01000F9CB0100C494020035CF0100CC9402008A
:10D0200049CB0100C8940200012806D8012A06D085
:10D0300001291BD0022908D071B1072070470129AE
:10D0400011D002294FF00002F6D10B4B00EB40004B
:10D05000034400205A707047074B00EB4000034424
:10D060009A700020704700F10E02D2B2024B00EB22
:10D0700040001A54F5E700BFA8300020012801D96C
:10D080000620704708B502F0C5FD1F2886BF0A4B71
:10D0900000F01F004FF0A04303EB80030020D3F803
:10D0A000002722F44032C3F80027D3F8002742F4C7
:10D0B0004032C3F8002708BD0003005090DF7047DE
:10D0C000A5DF7047B5DF704770B5002484B061F309
:10D0D0000F04002361F31F446A4602A90294064626
:10D0E00003930093ADF80430FFF7E8FF044610B94E
:10D0F000204604B070BD124B124DED1AED0801F040
:10D1000055F92D0445F0010503460F4932462846DE
:10D1100000F048FBBDF80020BDF8023052EA0301E0
:10D1200003D00A49284600F03DFBBDF80420002A40
:10D13000DED02846064900F019FC204604B070BD38
:10D1400094A40200BCA40200D09402001C9502002A
:10D150005C95020088B130B4FB220271084C016179
:10D1600000234FF0F71541F6FB320560C0F806408A
:10D170004381828130BC184670470E20704700BF43
:10D18000F700170040B1A1F11703E02B02D801808E
:10D1900000207047072070470E2070478288002AC1
:10D1A0003CD110B50388242B82B00C4611D80F2B2C
:10D1B00030D9103B142B2DD8DFE803F06E932C2CC4
:10D1C0002C2C2C2C2C2C2C2C2C2C2C2C2C2C2C9C2F
:10D1D00082003A2B43D0552B1CD1C388C988A27238
:10D1E000172B38BF17238B4228BF0B4623811046CD
:10D1F000FFF768FF002840F08680E37A53B923697F
:10D2000043B140F6772122890091ADF804206946A8
:10D2100020469847A37A5BB902B010BD7047112829
:10D2200040F08980237B627B01219A42A17242D324
:10D23000E1880020FFF744FF48B31128ECD001F04B
:10D24000B5F8444B4449024644481B1ADB081B040A
:10D2500043F0010002B0BDE8104000F087BB4389F5
:10D26000C98822698B4228BF0B46172B38BF17236A
:10D2700023814AB1E17A39B140F677210091ADF8C6
:10D28000043069462046904700236381C4E74FF489
:10D290008073638102B010BD0B790B73C27B012ACE
:10D2A0000CBF2188C988228908BFE1808A4238D30F
:10D2B000627B9A42AED219460020FFF705FFA9E72C
:10D2C0000B69027A4A73002BA4D000204DF67A2114
:10D2D0008DF8050000918DF8042069462046984796
:10D2E00098E71F49C4F80610002241F6FB3362811B
:10D2F000A38191E7017A237B994228BF1946002038
:10D30000FFF7E2FE86E701F051F8124B154902469D
:10D3100012481B1ADB081B0443F0010000F026FB37
:10D320006BE70020FFF7CCFE00287FF478AF0122E6
:10D33000237BE272BCE701F039F8064B064902464E
:10D3400006481B1ADB081B0443F0010000F00EFB2B
:10D35000237BADE7BCA40200B495020094A40200B4
:10D36000F7001700E8950200B0DF704766DF7047EE
:10D3700060B159B10378DE2B0AD009684160DE2222
:10D380004FF6FF7302704380002070470E207047F5
:10D390000820704738B10378DE2B02D1418000208D
:10D3A0007047082070470E20704700BFF9B170B574
:10D3B000054684B050B10B78DE2B0C4606D1808830
:10D3C0004B88984214D02B88012B01D004B070BD3B
:10D3D0002E7A012EFAD16388A8889842F6D1267257
:10D3E0000021FFF7C3FF00284DD12072EEE7704700
:10D3F0000B7AEBB92B88112B34D0512BE4D1AB79BC
:10D40000022BE3D1AA7B02F0FD0104292ED0052ACC
:10D41000DCD100226946C1E901220092CA608DF880
:10D420000030FFF7A1FF0028D0D063689847CDE710
:10D430000021FFF79BFF034670B111280BD06368F2
:10D4400098472B88112B09D0512BBDD1A888638810
:10D450008342D4D0BAE701232372F2E7AA88638813
:10D460009A42B3D14FF6FF736380AFE7694600225B
:10D47000C1E901220092CA604FF4C0728DF80030F9
:10D48000ADF80420CDE7112804D0636804B0BDE8EE
:10D4900070401847267299E708B502F019FF044852
:10D4A000042100F017FC034B01225A7108BD00BF94
:10D4B000E4A4020098260020064B074810B500227D
:10D4C0001A7000F049FC044610B9044800F040FD11
:10D4D000204610BDC030002080A4020050960200FB
:10D4E00030B499B10D490E4D491BC90813D00D4CEC
:10D4F000002302E0013399420AD034F8232082420B
:10D50000F8D1184655F8300030BC7047044DF9E7A3
:10D51000002030BC70470846F6E700BFE4A40200D4
:10D5200094A402007C2D0020094B013903EBC003B9
:10D5300003290BD8DFE801F0040208060420704735
:10D54000022070475879704718797047002070475B
:10D5500094A40200704700BF2DE9F0438B4CD4E93E
:10D5600001239A4285B05DD00023C4F81834BFF37C
:10D570004F8FA568EAB2D31C04EB830014F8233064
:10D58000590718D56668037803F00303012B42D0CE
:10D59000022B03D14388023505EB9315EAB2D4F888
:10D5A0001814D31C04EB830029B9AE4239D914F8FE
:10D5B00023305B07E7D404EB82026B1CDBB2D2683A
:10D5C00004EB830302F00301DB680229CDE90123A8
:10D5D00005F102062AD0012900F08A80D4F81054FF
:10D5E0003DB12B6828469B689847EB681D68002D65
:10D5F000F7D16748674B6849C01AC008000440F07B
:10D60000020000F091FAD4E90130C01A18BF0120DD
:10D6100005B0BDE8F08303880235C3F383131D44CE
:10D62000BCE7A660002005B0BDE8F083BDF8063079
:10D630005A48C3F389184546502D28BF502565F335
:10D640008F1305F10801ADF8063000F087FB07469F
:10D650000028C3D000F0CEFB0023082201A93846E1
:10D6600000F0F8FBF343DBB20133B5EB830F4FEA75
:10D6700083097FD9F1B2A5EB0905033104EB8101E0
:10D680004A4638460823EDB200F0E4FB444909F16C
:10D6900008032A46384600F0DDFB08F1030806EBD4
:10D6A0009806D4F81834D4F81054002B5ED165B124
:10D6B000EB685A7928463946002A65D02B681B68E2
:10D6C0009847EB681D68002DF2D1384600F096FBB4
:10D6D00000230DF103008DF8033001F02FFBD4F887
:10D6E000183403B9A6609DF8030001F04DFB8AE7EA
:10D6F000BDF804202948C2F38313062B28BF062354
:10D7000063F38912023303F00F018900ADF804209E
:10D7100000F024FB074600283FF460AF00F06AFBEE
:10D720000023082201A9384600F094FBBDF804301C
:10D7300013F4707FB5D06FF001094FF00808A9EB22
:10D740000509F1B203314346042204EB8101384656
:10D7500000F080FBBDF804300136C3F3831309EBFE
:10D760000602934208F10408EBD89AE7384600F025
:10D7700045FB48E7F1B203312A4604EB8101082357
:10D78000384600F067FB88E71D6890E7C03000204E
:10D790009CA4020094A402003896020080A4020017
:10D7A000CC3000202DE9F04FDFF8BCB189B0002467
:10D7B00006460DF113000193894692468DF81340F9
:10D7C00001F0BCFADBF80830DBF8047003F5807375
:10D7D000DB1B032B00F2C480CDE902760BF21C4563
:10D7E0000BF583680BF2144419E0BDF81620C2F360
:10D7F00089120332360C07EB9207204602F0B8FC80
:10D800003146002839D02846CBF8087002F08CFC4D
:10D81000DBE9012303F580739B1A032B5CD80121FC
:10D82000284602F081FC404602F096FC204602F0B9
:10D8300093FCDBF80870FAB2D11C0BEB810C1BF8DF
:10D8400021104B0701F0040027D40BEB82017A1C56
:10D85000C9680591D2B20BEB820201F003000128E6
:10D86000D66807F1020730D00228BED0204602F069
:10D870007FFC002631460028C5D12846C6E7BCF803
:10D88000027001EB9717FAB2D31C0BEB830C1BF859
:10D89000230000F004000028D7D09CF8003003F0EB
:10D8A0000303012B0AD0022B07F1020102F103034B
:10D8B000E5D00BEB830C0028EFD1C6E7BCF80030B5
:10D8C0000237C3F383131F44DDE7BDF81420C2F30E
:10D8D0008312360C174490E7DDE90276D3B20333A6
:10D8E00085214BF8231004329DF81300CBF8042057
:10D8F00001F04AFABB1CDBB20BEB8303019AC3F8BD
:10D900000CA0FB1CDBB20BEB830300211548DA6093
:10D9100002F0E8FB80F31001F300781C03F03803F9
:10D92000C0B2FAB2090443F081030BEB800003326A
:10D9300043EA892341EA1641C1604BF822309BF843
:10D94000003023B9FFF706FE09B0BDE8F08FFFF7FE
:10D9500003FE0028F6D0FFF7FFFD0028F7D1F1E71E
:10D960003A46BBE7DC340020C03000202DE9F04F00
:10D97000DFF8B0B187B0002306460DF10B008DF83B
:10D980000B30CDE9001201F0D9F9DBE9018303F591
:10D990008073A3EB0803022B00F281800BF21C457D
:10D9A0000BF583670BF214441AE0BDF80E20C2F3A6
:10D9B000891203324FEA114A09EB9209204602F01C
:10D9C000D7FB514600283AD02846CBF8089002F001
:10D9D000ABFBDBE9012303F580739B1A022B5FD8B5
:10D9E0000121284602F0A0FB384602F0B5FB204694
:10D9F00002F0B2FBDBF80830DAB2D11C0BEB810C81
:10DA00001BF8211001F00400490728D40BEB820118
:10DA10005A1CC9680391D2B201F003000BEB8202D9
:10DA20000128D16803F1020931D00228BDD0204677
:10DA300002F09EFB4FF0000A51460028C4D1284650
:10DA4000C5E7BCF802300EEB9313DAB2D11C0BEB36
:10DA5000810C1BF8211001F004000028D6D09CF89E
:10DA6000001001F0030101290AD0022903F1020E7E
:10DA700002F10301E5D00BEB810C0028EFD1C5E7E3
:10DA8000BCF800200233C2F383121344DDE7BDF873
:10DA90000C20C2F383124FEA114A91448EE74246AA
:10DAA000D3B2033345214BF8231003329DF80B000A
:10DAB000CBF8042001F068F908F10203DBB20BEBAC
:10DAC0008303019A1648DA60002102F00BFB80F311
:10DAD0001001F300009A03F0380343F0410308F10A
:10DAE000010043EA8223C0B25FFA88F209040BEB1B
:10DAF0008000033241EA1641C1604BF822309BF8A6
:10DB0000003023B9FFF726FD07B0BDE8F08FFFF71F
:10DB100023FD0028F6D0FFF71FFD0028F7D1F1E71D
:10DB2000DC340020C03000202DE9F04FDFF8A0A148
:10DB300087B0002306460DF10B008DF80B300191E4
:10DB400001F0FCF8DAE9018303F58073A3EB080325
:10DB5000012B00F281800AF21C450AF583670AF264
:10DB600014441AE0BDF80E30C3F3891303334FEAAF
:10DB700011490BEB930B204602F0FAFA49460028B4
:10DB80003AD02846CAF808B002F0CEFADAE9012302
:10DB900003F580739B1A012B5FD80121284602F000
:10DBA000C3FA384602F0D8FA204602F0D5FADAF87D
:10DBB0000830DAB2D11C0AEB810C1AF8211001F0FE
:10DBC0000400490728D40AEB82015A1CC968039152
:10DBD000D2B201F003000AEB82020128D16803F1FE
:10DBE000020B31D00228BDD0204602F0C1FA4FF01E
:10DBF000000949460028C4D12846C5E7BCF80230D0
:10DC00000EEB9313DAB2D11C0AEB810C1AF8211037
:10DC100001F004000028D6D09CF8001001F00301A8
:10DC200001290AD0022903F1020E02F10301E5D015
:10DC30000AEB810C0028EFD1C5E7BCF800200233C5
:10DC4000C2F383121344DDE7BDF80C30C3F3831332
:10DC50004FEA11499B448EE74246D3B20333052174
:10DC60004AF8231002329DF80B00CAF8042001F094
:10DC70008BF80021154802F035FA80F31001F3000B
:10DC8000019A03F0380343F0010308F1010043EA6D
:10DC90008223C0B25FFA88F209040AEB80000332E3
:10DCA00041EA1641C1604AF822309AF8003023B99F
:10DCB000FFF750FC07B0BDE8F08FFFF74DFC0028E0
:10DCC000F6D0FFF749FC0028F7D1F1E7DC3400205B
:10DCD000C030002030B4154DD5F81014044679B189
:10DCE00000200B4601E01B685BB1DB681A798242B9
:10DCF000F9D101300A28F4D14FF0FF3030BC704721
:10DD00000846E3681871D5F810344BB1DA68E36857
:10DD100012681A60D5F81034DB681C6030BC70479C
:10DD2000C5F81044E268136030BC7047C030002072
:10DD300038B5084BD3F8104401251D704CB1E36889
:10DD40005D71236820465B689847E3681C68002C77
:10DD5000F5D138BDC030002002F016BA2DE9F041EF
:10DD6000078ACE1C043F3E440546B6FBF7F602F098
:10DD700029FA002834D0F6B24FF48073013E0446ED
:10DD80008380C78005602CD003464FF0000807E071
:10DD90006279464502F1010262713860056020D067
:10DDA00028461F4602F00EFA08F101080346002833
:10DDB000EED16779791E17D0224601339942126855
:10DDC000FBD1D2F800805FB12668002501E034461F
:10DDD000366821464046013502F01CFAAF42F6D8BB
:10DDE00000242046BDE8F0812068214602F012FAA6
:10DDF000F6E700BF0121043002F096B92DE9F041A9
:10DE000001210446043002F09BF910F0FF0301D019
:10DE1000BDE8F0816779791E16D022460133994218
:10DE20001268FBD1D2F80080002FF1D026680025BF
:10DE300001E03446366821464046013502F0EAF9F1
:10DE4000AF42F6D8BDE8F08120682146BDE8F04138
:10DE500002F0E0B92DE9F8438846C788417907FB0D
:10DE600001F1043902EB030C1E1D6145154638BF54
:10DE7000CD1AB7420446B6FBF7F207FB126002D890
:10DE8000013A2468FCD13E1AAE4228BF2E469DB10D
:10DE90004FF000090430AD1B324608EB0901204465
:10DEA00004F05CFAAF42B14424683E464FF00000F3
:10DEB00028BF2E46002DEDD1BDE8F8832DE9F843AB
:10DEC0000446C788407907FB00F0043802EB030CD6
:10DED0001E1D6045154638BFC51AB7428846B6FBB9
:10DEE000F7F207FB126102D8013A2468FCD17E1ACE
:10DEF000AE4228BF2E469DB14FF0000904312144A7
:10DF0000AD1B324608EB090004F028FAAF42B144D9
:10DF100024683E464FF0000128BF2E46002DEDD16B
:10DF2000BDE8F883064A074B10B5002414701C6046
:10DF3000BFF35F8F0449054800F022FA204610BD68
:10DF400050360020543600205C96020048360020EF
:10DF500082680023936082681361826853618268DB
:10DF6000D3608268536082681360704760DF7047D7
:10DF700069DF704761DF704730B5154DADF5017D44
:10DF80004FF4FA740DF1020103A8ADF80240FFF757
:10DF9000F1FF88B9294601A800F0F2F9029B002B95
:10DFA000F0D0D3E9003103A8984701A800F0F2F9B6
:10DFB000029B002BF5D1E5E7052802D10DF5017D87
:10DFC00030BD0DF5017DBDE8304000F0F7BB00BF6E
:10DFD000F4980200024B1B780BB1FFF7CDBF7047DE
:10DFE00058360020002900F0C18030B5604B0B602E
:10DFF00085B005460C460C22002101A804F01CF84F
:10E0000001238DF8063022688DF80450062301A9FB
:10E010002020ADF80830FFF7ABFF002850D10C22CC
:10E02000002101A804F008F8012322688DF80530CA
:10E0300001A94020FFF79CFF002840F089800C22B6
:10E04000002101A803F0F8FFF72322688DF804509F
:10E0500001A92320ADF80630FFF78AFF002869D117
:10E060000C22002101A803F0E7FF012022688DF8AF
:10E07000040001A9FFF77CFF00284DD10C220021EC
:10E0800001A803F0D9FF4FF4B0632268019301A9FE
:10E09000A120FFF76DFF88BB0C22002101A803F02F
:10E0A000CBFF9DF8043022686FF3000301A9A02084
:10E0B0008DF80430FFF75CFF80B9002005B030BD5B
:10E0C00000F074F92B4B2C4902462C48181AC00852
:10E0D000000440F00100FFF749FCA0E700F066F9FA
:10E0E000244B2749024625481B1ADB081B0443F032
:10E0F0000100FFF73BFC002005B030BD00F056F9F1
:10E100001C4B204902461D48181AC008000440F064
:10E110000100FFF72BFCBFE700F048F9154B1A4947
:10E1200002461648181AC008000440F00100FFF724
:10E130001DFCA3E700F03AF90E4B144902460F48C4
:10E14000181AC008000440F00100FFF70FFC87E731
:10E1500000F02CF9074B0E4902460848181AC0086F
:10E16000000440F00100FFF701FC68E70E20704753
:10E1700008260020CCA402007496020094A4020099
:10E18000F09702009C970200509702000897020047
:10E19000BC960200F8B504460768FFF7E7FE23685F
:10E1A000BB42054605D825BB1A4B01221A702846EA
:10E1B000F8BD194B194E1A49F61AF608360446F0FE
:10E1C00002063046FFF7B0FC236816493A4630464F
:10E1D000FFF7E8FA4FF080532268D3F80C31124968
:10E1E0009B0203F100539A1A3046FFF7BFFB002D44
:10E1F000DAD0284600F0DAF8084B0C490246064807
:10E200001B1ADB081B0443F00100FFF7AFFB284695
:10E21000F8BD00BF5836002094A40200CCA4020030
:10E220004498020074980200A8980200D498020052
:10E2300010DF704730B5394D394985B0012302A848
:10E240002B7000F09DF8039B23B90FE000F0A2F8BB
:10E25000039B5BB1D3E9003100209847034602A835
:10E26000002BF3D10024204605B030BD2D4902A873
:10E2700000F086F8039B4BB1D3E9003100209847AA
:10E2800002A800F087F8039B002BF5D1264B02A8CB
:10E290001A68019200238DF8083000F04FFD2349E1
:10E2A00001A8FFF7C5FF224AB0FA80F304465B09D4
:10E2B0009DF80800137000F067FD002CD3D11D4BB2
:10E2C0001D491C702C7091F81623EC235209134140
:10E2D000DB071DD5194B9A68AAB94FF480030B6070
:10E2E000104902A800F04CF8039B002BBAD0D3E9E8
:10E2F00000310120984702A800F04CF8039B002B46
:10E30000F5D10024AFE71A6842F480021A60E7E70B
:10E3100042F2020000F052FAE2E700BF5936002054
:10E32000249902001899020038990200DDE70100E3
:10E330005B3600205A36002000E100E0183700204C
:10E34000034B1B780BB9FFF775BF0820704700BF60
:10E350005B36002000B583B00849684600F010F82D
:10E36000019B43B1D3E900209047684600F012F8C2
:10E37000019B002BF6D103B05DF804FB0C99020061
:10E3800001600B6843604A68934208BF0023436002
:10E39000704700BF436843B1026891680B44436013
:10E3A0005268934204BF0023436070470E49A1F5B1
:10E3B000947205E052F83330984238BF614607D274
:10E3C0008B1A1B11914202EBC30CF3D8074870471C
:10E3D00002D90CF10802F3E7DCF80400034B002833
:10E3E00008BF1846704700BF509E0200509E0200B2
:10E3F00038B5174B1D783DB3164A1168C0B20023DB
:10E400000C4604E00133AB4204F108041CD011F8BF
:10E4100033209042F6D102F009FB6378A3F10103A7
:10E42000B3FA83F35B09834200D038BD0A4AD2E9CC
:10E4300000321343F9D1094B094819680022BDE89D
:10E440003840490800F0E0BB00231B78FFDE00BF26
:10E450008C36002090360020803600208836002040
:10E46000A02600202DE9F047DFF86092DFF860A2D7
:10E4700099F8003082B0002B4FD0DFF85882904FCF
:10E480000024D8F8005015F8340002F0CFFA15F83F
:10E49000346005EBC40572086B78B95CA3F1010325
:10E4A000B3FA83F3F5074FEA531340F1A2800D0945
:10E4B000042D00F29B80DFE805F0033847544E003E
:10E4C000834240F093800F20102301400B43BB5444
:10E4D0000DF1070000238DF8073000F02FFC01221A
:10E4E000A6F12003C6F1200122FA01F102FA03F39A
:10E4F0000B43DAF800109DF80700B2401143DAF838
:10E500000420CAF800101A43CAF8042000F03CFCAA
:10E5100099F8002001349442B3DBDAE90032134366
:10E5200040F0C38002B0BDE8F087181AB0FA80F05E
:10E53000400943010F2008400343BB5499F80020D1
:10E54000013494429DDBE8E783424FF00F0040F036
:10E55000AA8030236AE0834240F0A3800F2030235A
:10E5600096E0834242D00F20402391E0834200F0A6
:10E570009580F02399F800500B40BB54A5B1D8F812
:10E5800000000023024603E0AB4202F108020BD078
:10E5900010F83310B14203F10103F5D122B15368F1
:10E5A00013B100213046984700230DF107008DF884
:10E5B000073000F0C3FB0122A6F12003C6F12001C1
:10E5C00022FA01F102FA03F30B43DAF800109DF886
:10E5D0000700B24021EA0201DAF80420CAF800106C
:10E5E00022EA0302CAF8042000F0CEFB99F80020CA
:10E5F000A6E701F00F05042DF8D80FF2080C5CF81F
:10E6000025F000BF85E6010077E6010023E6010062
:10E6100019E601006DE501008342E7D0F0200423F4
:10E6200036E083424FF0F00031D1032301400B4329
:10E63000BB5499F80020002A3FF46FAFD8F800507F
:10E640000023294604E0934201F108013FF478AF2A
:10E6500015F83300B04203F10103F4D100293FF46F
:10E660006FAF4B68002B3FF46BAF304601219847EA
:10E6700099F8002064E7181AB0FA80F040094300C6
:10E68000F02058E78342B1D1F02001231DE7012398
:10E6900001400B43BB5499F8002051E7F0200323BD
:10E6A000F6E70F2366E71023F2E7064B06481968E2
:10E6B0000022490802B0BDE8F04700F0A5BA00BF4B
:10E6C0005C36002088360020A02600208C360020F2
:10E6D0008036002090360020092A3FD9F0B583B05B
:10E6E000144605460E4602F01FF888B3204B214A17
:10E6F0001E70214B1560002120481C60202203F071
:10E700009BFC1F4B00200021741EC3E90001E4B2F2
:10E7100036B31C4F05EBC404032602E0A5421FD00C
:10E720001C469DF8063094F802C020788DF80460ED
:10E7300023F007033A4601A98DF806308DF805C08D
:10E7400001F0FCFFA4F108030028E7D003B0F0BDFE
:10E7500001F090FF0028C9D003B0F0BD072070473A
:10E76000094A0A48002103B0BDE8F04000F034BA7D
:10E770008C36002090360020883600205C36002041
:10E7800080360020F1E3010065E40100649E020090
:10E7900070B5084D2B785BB1074E0024336801211A
:10E7A00013F8340002F0CAF82B780134A342F5D8EC
:10E7B000002070BD8C3600209036002000B585B05A
:10E7C0000346002101AA44F20100CDE9011103939F
:10E7D00000F004F805B05DF804FB00BF10B572B698
:10E7E000FFF7A6FAFEF7B8FE0028FBD1104B114C3C
:10E7F0001149E41AE408240444F00100FFF794F9F5
:10E800000E4BD3F8F030DB0700D500BE0C4944F0C6
:10E810000200FFF789F9BFF34F8F0849094BCA6817
:10E8200002F4E0621343CB60BFF34F8F00BFFDE7FC
:10E8300094A402009CA40200749E020000ED00E07B
:10E84000809E02000400FA0530B48D688468C268B6
:10E85000CB68A54293412CBF0120002030BC7047FB
:10E8600030B5344B1D7883B01DB90025284603B060
:10E8700030BD04460028F8D02F4801F077FB2F4B1D
:10E880001A685B6880182E4AD2E9001243F100032F
:10E89000884273EB020203D210F1807043F100034F
:10E8A000D4E90212884293410AD2B2F1FF3F08BF75
:10E8B000B1F1FF3FD9D02348214601F0AFFED5E7A3
:10E8C00000230DF107008DF8073000F037FA2369B7
:10E8D0002BB94FF0FF324FF0FF33C4E902239DF80C
:10E8E000070000F051FAD4E90530984700230DF1F4
:10E8F00007008DF8073000F021FA2369ABB1D4E9A5
:10E900000212B2F1FF3F08BFB1F1FF3F0DD05B181B
:10E9100042F100029DF80700C4E9023200F034FA27
:10E920000848214601F07AFEA0E79DF8070000F0B4
:10E930002BFA9AE710370020C02600200837002065
:10E9400000370020909E02002DE9F04F83B08146F1
:10E9500001F0E0FA40B17C4AD2E9003113F1807352
:10E9600041F10001C2E900310021484601F0EEFA10
:10E97000764D30B12B6823B12868FFF771FF002373
:10E980002B600121484601F0E1FA002840F0C480E4
:10E990006F4801A901F064FB00283AD06C4C4FF09D
:10E9A000FF3A4FF0FF3B09E033B301A9204601F0E5
:10E9B00089FB01A9204601F053FB50B30378012BDA
:10E9C00011D0022BF0D1634E304601F03BFE30B146
:10E9D000C0E902AB304601F035FE0028F8D15E4BAD
:10E9E00001221A70E1E72B684168994200F091809A
:10E9F000584801F031FED8E74168D1E90223B3F16C
:10EA0000FF3F08BFB2F1FF3FCFD0524801F006FEF2
:10EA1000CBE7504E514FDFF83081304601F018FE01
:10EA2000002853D0D0E90223B3F1FF3F08BFB2F171
:10EA3000FF3F6AD0296891B12968D1E90201824279
:10EA40008B4159D22B68D3E90223B3F1FF3F08BFB2
:10EA5000B2F1FF3F03D02968304601F0DFFD3046B8
:10EA600001F0F0FD04463846D4E902AB01F07EFA2D
:10EA70003B4BD8F80410D3E900E2D8F80030C318B3
:10EA800041F10001734571EB020C03D213F1807365
:10EA900041F10001BAEB03036BEB010B012B7BF19E
:10EAA000000B1BDBB3F5350F29D252464FF496030A
:10EAB0000021384601F0A4F9C0B10D2812D000237E
:10EAC00030462B6001F0C4FD0028ABD12B689BB908
:10EAD000484603B0BDE8F04F01F064B90021384664
:10EAE00001F028FA2046FFF7BBFEE8E72B6813B9D0
:10EAF000484601F053F92C6003B0BDE8F08F38466A
:10EB000001F034FA174A0244D0E7304601F09AFD8A
:10EB100083E700232B6048E7104801F027FA0A4BEF
:10EB20001A685B6880180E4AD2E9004143F100037D
:10EB3000A04273EB010103D210F1807043F1000396
:10EB4000C2E9000324E700BF083700201437002083
:10EB500098360020909E020010370020C02600202A
:10EB600000370020FFFFB40010B5134B13491C6899
:10EB7000134882B008235822019401F017FA044682
:10EB800010B1204602B010BD0E4A0F4801A901F095
:10EB9000A1F804460028F4D10B48012101F0B0F996
:10EBA00001231946094A084801F000F9084B0122DF
:10EBB00020461A7002B010BDA89E0200A8360020A0
:10EBC0009836002049E90100C0260020FFFF7F00A1
:10EBD00010370020000000006AB19FED097BA1F111
:10EBE00001010368B1FA81F1490983ED027BC3E9B0
:10EBF0000412002070470720704700BFAFF3008069
:10EC0000FFFFFFFFFFFFFFFFF0B583B004460026C4
:10EC100001A817460D468DF8046000F08FF8D4E97E
:10EC20000223B3F1FF3F08BFB2F1FF3F06D09DF8CA
:10EC3000040000F0A9F8304603B0F0BD1C4801F014
:10EC400095F91C4B1C4A19685B684018D2E9001200
:10EC500043F10003884273EB020220D3281843F1EA
:10EC60000003A060E3609DF8040000F08DF82369C4
:10EC7000A76103B12561114801A901F0AFF903466D
:10EC800050B100220D481A705C6001A901F0D8F95A
:10EC900050B9002003B0F0BD042003B0F0BD10F166
:10ECA000807043F10003D9E7014801F063F9F0E710
:10ECB000C0260020083700200037002098360020AA
:10ECC00030B583B00446002501A88DF8045000F04B
:10ECD00035F8D4E90223B3F1FF3F08BFB2F1FF3F9B
:10ECE0001DD04FF0FF334FF0FF32C4E902239DF8EF
:10ECF000040000F049F80F4801A901F06FF903463C
:10ED000050B101220B481A705C6001A901F098F91A
:10ED100060B9002003B030BD042003B030BD9DF8C1
:10ED2000040000F031F8284603B030BD024801F07D
:10ED300021F9EEE798360020C026002070B4EFF3EA
:10ED4000108472B60D4A9368ABB9012191600C49E9
:10ED50000C4ED1F8805035401560C1F88060D1F874
:10ED6000845055604FF0FF32C1F88420037004B91D
:10ED700062B670BC70470123F8E700BF1837002067
:10ED800000E100E0FC06FFBD094B9A687AB170B95A
:10ED900010B4EFF3108172B6064A1C6814605C6808
:10EDA0005460986001B962B65DF8044B70477047D3
:10EDB0001837002000E100E072DF704773DF704712
:10EDC00074DF7047F8B5044600F1EA0681700D461D
:10EDD00007220021304603F02FF9E38813B1A3780E
:10EDE000012B61D0E379002B5BD194F8EB30002B41
:10EDF00064D194F8EC30002B60D194F8ED30002B06
:10EE00005CD194F8EE30002B58D194F8EF30002B01
:10EE100054D194F8F030003B18BF0123013D032D7D
:10EE200000F23681DFE805F002060A0EA279002A18
:10EE300040F00681E279002A40F0E180237A002B3D
:10EE400040F0F880637A002B40F0DF80A37000234D
:10EE500084F8F33004F13C0518220021284603F021
:10EE6000EBF8E36A591E0122022928BF134684F8F1
:10EE7000513094F8243084F83C2033B1A36A591EF1
:10EE8000022928BF134684F85230A378002284F860
:10EE90005020042B00F2F180DFE803F046A250710D
:10EEA0001200A378022BA0D1636B002B00F0E88046
:10EEB000012284F8F1200820984796E70123ADE766
:10EEC000D4E9071263796164A4F84820002B00F0AC
:10EED000C18094F8F230002B40F0BC8094F8F430FC
:10EEE000002B00F0B7800223B4F8D810D4F8D40077
:10EEF00084F85030012202F0A9FB08B1042303700A
:10EF000004F1D40704F154062A4639463046FFF787
:10EF100053FF002840F0B780062384F83130A378EF
:10EF2000C4F8E4701BB19EE0002384F83130636BB9
:10EF300013B194F8310098470020F8BDD4E90332AA
:10EF40000221C4E91063A4F848200323002284F8B6
:10EF50003110C4F8E42084F83C30002104F1540658
:10EF60002A463046FFF728FF0028E6D194F83010F3
:10EF700094F85400FFF722FF0028D8D0F8BDD4E958
:10EF8000051263796164A4F84820002B6ED094F8D0
:10EF9000F230002B6AD194F8F430002B66D00223B3
:10EFA000B4F8D810D4F8D40084F85030012202F01C
:10EFB0004DFB08B10423037004F1D40704F1540697
:10EFC0002A4639463046FFF7F7FE00285BD1052375
:10EFD00084F83130A378C4F8E470002BA7D042E065
:10EFE00000230122C4E9106384F83120C4F8E4301E
:10EFF0000222802384F83C20A4F84830ADE7002B9F
:10F000003FF41CAF0223A37021E7626B0423A370BB
:10F01000002A3FF41CAF6379002B3FF418AF94F83B
:10F02000F230002B7FF413AF0123A4F8F330072054
:10F0300090470FE7626B0323A370002AEBD106E72A
:10F0400094F82420002A7FF4F5AE002B3FF4F6AEAE
:10F050000123FBE6042204F1D40384F83120C4F830
:10F06000E43004F15406D4F8E41079E7032204F103
:10F07000D40384F83120C4F8E43004F15406F2E7F4
:10F0800084F8F130B1E6A378002B3FF450AFEAE703
:10F090000023A370DBE600BF80F83010704700BF8C
:10F0A000002973D02DE9F0410446002870D091F872
:10F0B0007A300D46002B62D1D5F8A030042B62D0F7
:10F0C000D5F89C30042B5ED00027A77005F1780E90
:10F0D000BEE80F0004F1040CACE80F00BEE80F001E
:10F0E000ACE80F009EE807008CE8070084F8307059
:10F0F000D5F8A4306363D5F8A830A3634FF6FF7842
:10F1000004F1D40639460722C4F8E460A4F8E88084
:10F1100004F1EA0002F090FF23780BB984F85480E0
:10F12000224604F155011F26C4F8D410284622F8BF
:10F13000D86F02F079F838BB224604F19301C4F885
:10F14000DC1005F13C0022F8E06F02F06DF8D8B950
:10F15000D4E905230125A4F848304FF48073C4E9AD
:10F160001002014684F83C5004F13C0204F15400C2
:10F17000A4F85030FFF720FE30B9257004E091F874
:10F180009830002B98D00720BDE8F0810E20704702
:10F190000E20F9E703780BB1FFF714BE0820704783
:10F1A00010B50388112B0C460BD0262B22D0102B28
:10F1B00000D010BDC37B012BFBD18388A1F8E830C0
:10F1C00010BD002381F8F2308288B1F8E8309A420D
:10F1D000EFD10B79002BECD10B7813B30121204632
:10F1E000FFF7F0FD0028E4D0A36B002BE1D0BDE8D1
:10F1F00010401847037A013B012BDAD80B78897845
:10F200007BB1094B0131A3FB012303F4FE7202EB36
:10F210009303C91AC9B22046FFF7D4FD0028E3D1F1
:10F2200010BD0820E0E700BFCDCCCCCC38B50446FB
:10F2300090F85400FFF7C4FD00230122B4F8D81061
:10F24000D4F8D40084F8F22084F8F43084F85030F4
:10F2500002F0FCF908B10623037004F13C0204F14A
:10F26000D40104F15400FFF7A7FD054648B92378FF
:10F27000A17843B12046FFF7A5FD10B1A36B03B100
:10F280009847284638BD0820F8E700BF75DF70476B
:10F2900076DF70477ADF70477BDF704770B51D4DB2
:10F2A0002B8884B2A34282B011D11B4E297A327BC3
:10F2B00091420ED3337C00222A72F3B9736933B1C1
:10F2C00000228DF80420ADF8064001A8984702B04E
:10F2D00070BD05F10A011846FFF7D8FF40B11128AB
:10F2E000F5D0B369002BF2D002B0BDE870401847EA
:10F2F0002B7A01332B7202B070BD3B212046FFF701
:10F30000C7FF30F00803D9D0B369002BD6D0984797
:10F31000D4E700BF483700202C37002070B50288A2
:10F32000122A82B003466ED015D8102A30D0112A86
:10F330000FD16B4C828823889A420AD16068FFF70C
:10F34000BFFC18B1674B9B6903B198474FF6FF7339
:10F35000238002B070BD502AFBD1624DC188EA897A
:10F360009142F6D1028A022AF3D15D4C8288268826
:10F370009642EED1123000F041FA002800F09B8056
:10F38000637A002B40F09E80D5E9013132466AE075
:10F3900090F80FC08288BCF1010FDAD1504C208860
:10F3A0004FF6FF7188427FD14F4D2280002121729C
:10F3B00003CDC4F80A00C4F80E10588A6589B4F861
:10F3C0000CE0E189854260D886455ED340F2F315B2
:10F3D000A9429B8A94BF481A481B984255D8294491
:10F3E000994252D33F4D84F809C0EB89002BB0D12C
:10F3F0006B69002BADD001218DF80410ADF806200B
:10F4000001A89847A5E7364C828821889142A0D16F
:10F410004089B4F80AC0B4F80CE0E58984451DD8E9
:10F4200086451BD340F2F31C65459B8994BF681B3E
:10F43000A5EB0C00984211D865449D420ED3294B90
:10F440005B694FF480722281002B82D001228DF8FB
:10F450000420ADF8061001A898477AE7214D002155
:10F4600061726B68A968207A002808BF1946606835
:10F47000FFF7CAFB00283FF46CAFAB69002B3FF4E9
:10F4800068AF02B0BDE870401847164DEB89002107
:10F490006172002B7FF45DAF69686068FFF7B4FBB1
:10F4A00000283FF456AFE8E70E4B9B69002B3FF472
:10F4B00050AF0420E5E76068FFF702FC00283FF446
:10F4C00048AFDAE76B6900222272002B3FF441AFAC
:10F4D00001228DF80420ADF8066001A8984738E7AE
:10F4E000483700202C3700202437002070B3F8B5AF
:10F4F00086460768164E174D0446BEE80F00B44610
:10F50000ACE80F009EE8070035608CE80700BFB14B
:10F510003846FFF7BFFE90B923681868596803C5DD
:10F520000D4B0E490E4A18464FF6FF7440F8041F63
:10F5300000211C80FFF750FB002818BF0320F8BDF6
:10F540002846FFF7A9FE0028EAD0F8BD0E20704734
:10F550002C37002024370020483700206037002057
:10F560009DF20100A8DF7047ADDF7047AEDF704746
:10F5700062DF704700295AD070B504468AB038B1AE
:10F580000388502B0D4653D0572B39D0102B01D068
:10F590000AB070BD81886869002601AA019602F050
:10F5A0007BF8082231460DEB020002F045FD0223F4
:10F5B0002989A088CDF80CD002AA0293FFF7D4FFC6
:10F5C0000028E5D1AB69002BE2D0039800F016F9D2
:10F5D0000028DDD0019B0BB101221A7018220021F6
:10F5E00004A802F029FDA188019A02238DF81030A9
:10F5F000AB690595ADF81810079204A89847C7E7BE
:10F600008188686902AA02F047F80028C0D1029BED
:10F610001B78002BBCD0AB69002BB9D00146182257
:10F6200004A802F009FDA188029A0123DEE77047D1
:10F630008188686902AA02F02FF81822002104A824
:10F6400002F0FAFCE3882989A288ADF818209942D3
:10F65000029A0595079210D0AA899A4298D1AB696F
:10F66000002B95D0228AADF82420002112348DF889
:10F670001010089404A898478AE7268A022EEBD136
:10F68000002A85D004F1120000F0B8F8029B38B1CE
:10F6900001221A70AB698DF81060002BADD177E7AD
:10F6A00003261870F6E700BFF0B5364B0D4604464A
:10F6B0000FCB8FB00DF1080C8CE80F00002C5ED042
:10F6C000002D5CD02B68A36121466046FFF750FFF8
:10F6D00008B10FB0F0BD2246012512F8023B8DF8AB
:10F6E000063001A92846ADF80450FFF73BFF00287B
:10F6F000EFD10146202206A802F09EFC22460223FA
:10F70000ADF8183012F80C3B8DF81A30BDF82430E3
:10F710001D4E6088079623F44F6323F00F0343F4D4
:10F7200040632B4340F2011706A9ADF82430ADF831
:10F73000297000F067F80028CBD10146202206A8E6
:10F7400002F07AFCBDF824306088079623F48753D2
:10F7500023F01F03224643F480532B43ADF824309B
:10F7600012F8043B8DF81A3006A90323ADF829706E
:10F770008DF82B50ADF8183000F044F8A9E70E20B2
:10F780000FB0F0BDB49E0200F400010060B3F0B50C
:10F7900087B00E461746044601AA406919461D4621
:10F7A00001F07AFFD8B94FF6FF739D4219D0019B43
:10F7B000BBB11B78EBB13B88F42B17D80146102264
:10F7C00002A802F039FCA388ADF8083002A9012391
:10F7D0002846CDE904768DF80A30FFF7C7FE07B05A
:10F7E000F0BD052007B0F0BD0E207047072007B020
:10F7F000F0BD0820F3E700BFAADF7047008800F0E3
:10F8000001007047F0B58B7891B0012B38BF012310
:10F810000C468DF80E3005460B88ADF80C301646B8
:10F8200000210322684602F007FC637C0022013BB2
:10F830008DF80020042B09D8DFE813F0CF00D300A7
:10F84000D7000500DB0012238DF80030A37C0022D6
:10F85000013B8DF80120042B09D8DFE813F0CE001E
:10F86000D200D6000500BA0012238DF80130237DA6
:10F87000217B013303F0030341EA4301E37B41EAC7
:10F88000C301237C41EA03119DF8023001F01F01FE
:10F8900023F01F0319438DF802101C22002109A830
:10F8A00002F0CAFB637B13F0300F71D1637B8DF8DC
:10F8B00024301422A37B8DF82530002104A802F007
:10F8C000BBFBA288A368ADF81C2003AACDF814D016
:10F8D00004921BB10893E388ADF81830A369002B9C
:10F8E00034D001AF03220021384602F0A5FBA26903
:10F8F0001188ADF82C1000238DF804305388ADF832
:10F900002E3053680D970A93137B013B042B2BD8A1
:10F91000DFE803F093979B27870012238DF80530CB
:10F92000917B137A013101F0030143EA4103917A9B
:10F93000D27A43EAC10343EA02139DF8062003F09A
:10F940001F0322F01F0213438DF80630E36903B151
:10F950000C93334604AA09A92846FFF74DFF11B0BE
:10F96000F0BD12238DF80430537B0021013B8DF84C
:10F970000510042BD4D801A151F823F02BFA010073
:10F9800033FA01001BFA01001BF9010013FA010010
:10F9900002AF03220021384602F04EFBE37C002236
:10F9A000013B8DF80920042B07D8DFE803F0525EF5
:10F9B0005A03560012238DF809309DF80A300E972D
:10F9C000012262F342038DF80A3011238DF80830CA
:10F9D0006CE722238DF8013049E711238DF80030C0
:10F9E00034E721238DF8003030E731238DF80030E3
:10F9F0002CE722238DF8003028E711238DF8013001
:10FA000035E721238DF8013031E731238DF80130BE
:10FA10002DE722238DF8053082E731238DF805305C
:10FA20007EE722238DF804309EE711238DF8053000
:10FA300076E721238DF8053072E711238DF8043025
:10FA400092E721238DF804308EE731238DF80430BE
:10FA50008AE711238DF80930AFE722238DF80930AA
:10FA6000ABE731238DF80930A7E721238DF8093062
:10FA7000A3E700BF074B1B5C1F2B8ABF064A4FF052
:10FA8000A04203F01F03D2F80405D84000F00100A3
:10FA9000704700BFC89E020000030050064B1A5C6E
:10FAA0001F2A86BF054902F01F024FF0A041012323
:10FAB0009340C1F808357047C89E0200000300500B
:10FAC000064B1A5C1F2A86BF054902F01F024FF041
:10FAD000A04101239340C1F80C357047C89E020035
:10FAE000000300504FF0A0434FF400104FF4800289
:10FAF00010B4C3F80C054FF40044C3F80C254FF0C4
:10FB00008072C3F80C454FF40020C3F80C254FF069
:10FB10008052C3F80C054FF40064C3F80C25084963
:10FB2000C3F80C454FF00042C3F80C2520204FF0DD
:10FB30008042C1F80C05C3F80C255DF8044B7047F2
:10FB4000000300504FF0A0434FF400104FF4800228
:10FB500010B4C3F808054FF40044C3F808254FF06B
:10FB60008072C3F808454FF40020C3F808254FF011
:10FB70008052C3F808054FF40064C3F8082508490B
:10FB8000C3F808454FF00042C3F8082520204FF085
:10FB90008042C1F80805C3F808255DF8044B70479A
:10FBA000000300500A4B185C1F288ABF09494FF018
:10FBB000A04100F01F00D1F804350122824022EA62
:10FBC00003001340C1F80805C1F80C35704700BFA9
:10FBD000C89E020000030050074B1B5C1F2B8ABF0E
:10FBE000064A4FF0A04203F01F03D2F81005D84098
:10FBF000C04300F001007047C49E020000030050A3
:10FC00000E2805D0172814BF4FF0FF300120704791
:10FC100000207047014B185C704700BFC49E020073
:10FC2000C10709D4830741BF4FF0A0430C22C3F89A
:10FC30003827C3F85C2770474FF0A043244910B41D
:10FC400003224FF40014C3F85427C3F85827C3F80D
:10FC50003C27C3F86027C3F84C27C3F87027C3F8C4
:10FC60002C27C3F87C27C1F81427C3F87827C3F8DA
:10FC70000C454FF400424FF48004C3F80C45C3F820
:10FC80000C254FF080744FF40022C3F80C45C3F8E4
:10FC90000C254FF080544FF40062C3F80C45C3F8B4
:10FCA0000C254FF000442022C3F80C45C1F80C2568
:10FCB0004FF08042C3F80C25820706D54FF0A043D1
:10FCC0000C22C3F83827C3F85C275DF8044B704753
:10FCD0000003005010B5294C437944F82320284CE8
:10FCE00004EBC3031B79002B3BD103680A88C3F8DC
:10FCF000082590F904308A78002B2ADB03F1604351
:10FD0000520103F56143D2B283F8002390F9043025
:10FD1000002B09DB1B494FEA531C012203F01F0390
:10FD200002FA03F341F82C304279174B44F83200C1
:10FD30001648181A04EBC201C0084FF0010C000469
:10FD400081F804C040F003001149FDF7EDFE0020EA
:10FD500010BD104903F00F0352011944D2B20A76C4
:10FD6000D4E70A4B08480C49C01AC008000440F008
:10FD70000200FDF7D9FE082010BD00BF8837002023
:10FD80008037002000E100E0ACA4020094A402004F
:10FD9000F89E0200FCEC00E0D49E02000368012201
:10FDA0001A607047036801225A60704770B4056892
:10FDB0004FF480348C40C5F80843056801F1500CBD
:10FDC000C5F848434FEA8C0C05681FFA8CFC0026E6
:10FDD00045F80C6083B055F80C500195019D0568FD
:10FDE00001F5A87122F07F4245F821200268C2F88F
:10FDF000444313B10368C3F8044303B070BC7047B5
:10FE00002DE9F0474FF48037994603688F40C3F8D7
:10FE100048730368C3F80873036801F150060D4680
:10FE200003EB810122F07F48D3F80435D1F8402557
:10FE3000C1F84035B600B6B2D21A03684FF0000AD6
:10FE400043F806A082B09B59009322F07F42012A1A
:10FE5000009B044645D02368D3F80465C3F8447377
:10FE6000A8EB060323F07F43012B05F5A87527D0E7
:10FE7000226842F825802168D1F80405A8EB000229
:10FE8000C9F1FF13013A03F57F4322F07F42934209
:10FE900012D342B1C1F8447323680020C3F804733D
:10FEA00002B0BDE8F08708F1010341F82530216870
:10FEB000D1F804359842EDD00D2002B0BDE8F087AE
:10FEC000236808F1010243F825200C4B4FF48060B1
:10FED00043F0010398472168D1F804359E42D9D0F8
:10FEE000EAE7064B4FF4806043F00103984723682C
:10FEF00043F806A09B590193019BACE7109F0200B9
:10FF000002680223C2F8443311B10268C2F8043314
:10FF1000704700BF0368D3F8040100B9704700229E
:10FF200082B0C3F80421D3F804310193019B01206E
:10FF300002B0704702684FF4803303FA01F1C2F84F
:10FF400048130368C3F80813704700BF5031890095
:10FF5000036889B2585800B9704700225A5082B0DD
:10FF60005B580193019B012002B070470368D3F8EE
:10FF70000405704790F90430002B09DB5A09054845
:10FF800003F01F030121403201FA03F340F822304D
:10FF9000704700BF00E100E0024A034B10681B6895
:10FFA000184700BF803700208837002099B110B46F
:10FFB000B2FBF3F403FB1424A4B244B9016044601F
:10FFC00084608281C38120465DF8044B704709201C
:10FFD0005DF8044B70470E20704700BF10B483B02B
:10FFE00050E8013F1FFA83FCC489A4448489A445D6
:10FFF00028BFACEB040C0489A44502BFBFF32F8FCC
:020000022000DC
:10000000002207E0CCEA030C40E801C4002CE7D151
:100010004FF001028DF803200193019C9DF803200D
:100020000C6032B1006810FA84F003B05DF8044B44
:10003000704702F0FF03184603B05DF8044B7047A9
:100040000A884B889A4201D00020704750E8012F5F
:10005000C2EA024240E80123002BF7D10120704799
:1000600010B483B050E8023F1FFAA3FCC488A44533
:1000700002BFBFF32F8F00220EE0C489A4448489FD
:10008000A44528BFACEB040CC3EA0C4C40E802C406
:10009000002CE7D14FF001028DF803200193019C61
:1000A0009DF803200C6032B1006800EB144003B0EF
:1000B0005DF8044B704702F0FF03184603B05DF88B
:1000C000044B70470A884B889A4201D00020704741
:1000D00050E8022FC2EA224240E80223002BF7D167
:1000E00001207047034653E8000F0A4643E8002CFE
:1000F0009CF0000FF7D17047034653E8002F42EA07
:10010000010043E8000C9CF0000FF6D1704700BFDF
:10011000034653E8002F02EA010043E8000C9CF07C
:10012000000FF6D1704700BF034653E8002F02EBE3
:10013000010043E8000C9CF0000FF6D1704700BFAF
:10014000034653E8002FA2EB010043E8000C9CF0AB
:10015000000FF6D1704700BF0346012253E8001F8D
:1001600041EA020043E8000C9CF0000FF6D1704712
:100170000346002253E8000F00EA020143E8001C96
:100180009CF0000FF6D17047D0B110B4D0E9011245
:10019000521A0468D2B2531E2160DBB252B1016818
:1001A0000A6803F1FF3C541C0C6013705FFA8CF377
:1001B000FF2BF4D10368002018715DF8044B7047E1
:1001C0000E20704730B583B0044600250DF10700BE
:1001D0008DF80750FEF7B2FDD4E900311A688A4263
:1001E00010D9511E19602168A368086812F801CC63
:1001F0000A79E5681B1ADBB2208A9A4238BF0B7174
:1002000000FB0C559DF80700FEF7BEFD284603B025
:1002100030BD00BF30B5054683B00DF107000023A7
:100220000C468DF80730FEF789FD2A681368591CC3
:100230001160E9682A8A641AB4FBF2F41C709DF814
:100240000700FEF7A1FD03B030BD00BF704700BF3F
:1002500000B583B0044B0093044A402300F03AF801
:1002600003B05DF804FB00BF710202008C37002070
:1002700022B32DE9F843134B134E88461446032747
:1002800043F001090025224608EB0501002000F09B
:100290005FFE034601224FF47A40E41A1D4443B93D
:1002A00033784BB1C847013F4FF0010307D033709B
:1002B000E9E73270002CE6D1BDE8F883704737706B
:1002C000BDE8F883209F0200CC370020704700BFB4
:1002D00000F012BFF0B595B0084600240E46174650
:1002E0001D46FDF787FD1A9A0D922346082205A99F
:1002F0003046CDE9095408978DF82C400C94FDF751
:10030000DDFDDDE906219DF814308DF81140CDE9C1
:10031000021203F00302012A28D0022A04D0304638
:10032000FDF76CFD15B0F0BDBDF81650C3F3C20368
:10033000C5F389158DF810300827082D2C4628BFE5
:1003400008243B4622460EA93046FDF7B7FD2D1B7B
:1003500008AB02AA21460EA8274400F0DDF8002DC4
:10036000EBD13046FDF74AFD15B0F0BDBDF81410D5
:100370000598C1F38312C3F3C203C0F39525C1F3FB
:1003800083148DF810300EA9304692000823FDF733
:1003900095FD08AB0093224602AB0EA9284600F05B
:1003A00045F83046FDF72AFD15B0F0BD70B5C3889D
:1003B00082B004460D461BBB237A052B1ED0627A01
:1003C0007AB9134AA08852F823600021FDF788F813
:1003D000104903463246284602B0BDE8704001F09D
:1003E0008FB91946A088FDF79FF80B4B0B4953F8BE
:1003F0002020284601F084F9237AE2E702B070BD9C
:1004000007490091074A0849284601F079F9D3E7DE
:1004100000A00200609F0200DC9F02005C9F0200BF
:10042000549F0200349F02003C9F02002DE9F043DC
:1004300085B01D460C9C002394F80C9023738046D5
:100440000E46174621462846FFF7B0FF062F09D86B
:10045000DFE807F0042E343B444F1F00414620469E
:1004600001F04EF92B7A052B05D06B7A5BB9274941
:10047000204601F045F9204601F036F984F80C9049
:1004800005B0BDE8F083224A2249204601F038F940
:10049000EDE77369039333690293F3680193B368DB
:1004A0000093D6E900234146204601F029F9D9E717
:1004B00032684146204601F023F9D3E7D6E900230C
:1004C0004146204601F01CF9CCE7B3680093D6E919
:1004D00000234146204601F013F9C3E7F368019376
:1004E000B3680093D6E900234146204601F008F99D
:1004F000B8E733690293F3680193B3680093D6E9D0
:1005000000234146204601F0FBF8ABE76C9F020058
:10051000549F02005C9F0200082900D970472DE912
:10052000F04F1D4683B000241B7B2C730E460746FC
:100530002946104690460193DFF8D0B0DFF8D0A0EE
:10054000FFF734FF05E03A5D013401F0D9F8082CDB
:1005500009D0A64251462846F5D85946013401F043
:10056000CFF8082CF5D12449DFF8A8B0234CDFF8E8
:10057000A8A0284601F0C4F84FF0000917E017F8CA
:100580000910481C7E294FF02E02C0B206D81AF876
:10059000002012F0970F14BF0A462E22214628464B
:1005A00009F1010901F0ACF8B9F1080F0AD04E4584
:1005B000E5D85946284609F1010901F0A1F8B9F139
:1005C000080FF4D198F80830052B02D098F80930BC
:1005D0005BB90B49284601F093F8284601F084F8EE
:1005E000019B2B7303B0BDE8F08F064A06492846ED
:1005F00001F086F8EDE700BF7C9F0200809F0200BB
:100600006C9F0200549F02005C9F0200789F0200D2
:10061000709F0200689F020050A0020070B54468FD
:10062000064620680D4618B908E02468206828B1FD
:10063000B368294698470028F7D1206828602560CC
:1006400070BD00BF4368186808B102681A6070473F
:1006500043681868704700BF4368186818B908E015
:100660000346006828B18142FAD10A681A60012065
:100670007047704730B5274C94F8643083B0002B36
:1006800045D15A09012A38D103F01F0140F2FF3247
:10069000CA4012F0010F204A1CBFFF21D154013380
:1006A0002A2BEED14FF0FF33062200211B48C4F85D
:1006B0005A30C4E90033C4E90233C4E90433C4E95D
:1006C0000633C4E90833C4E90A3301F0B5FC144B1E
:1006D000C02283F8062340221A60124B0020C3F880
:1006E0007C01D3F87C21019201214FF00042019D51
:1006F00084F86410C3F804230AE04FF0FF3222FAB2
:1007000003F10548C90748BFC2540133B9E70820BF
:1007100003B030BDD0370020003800202E38002034
:1007200000E100E000600040034B93F864000038F3
:1007300018BF0120704700BFD037002070B57C4B38
:1007400003EB000E9EF930C0BCF1000F56DA91F8B1
:1007500002C01CF0020FCCF3400541D11C6A0134E9
:1007600000F0B8805C6A013400F0CF804FF0080ED2
:100770000C244FF00A0C53F82C60013642D00EF1D5
:10078000030CA4452AD253F82C6001363AD00EF15E
:10079000040EA64522D21E69013631D05E690136AB
:1007A00000F0A5809E69013600F0A480DE69013664
:1007B00000F0A380082C11D01C6A013400F0B18035
:1007C0005C6A013400F090809C6A013400F0AC80D7
:1007D000DC6A013408BF4FF00B0C13D0042070BD4D
:1007E0001C68013400F08C805C68013400F0948057
:1007F0004FF0000E08244FF0020CBCE7082070BD3B
:100800004FF0040C1C1843F82C204FFA8CF284F89B
:100810003020002D64D091F802C01CF0040F1ED1CE
:100820001CF0010F45D11F284D7887BF414E00F0C5
:100830001F0404464FF0A04604F5E074AD0046F8EE
:1008400024503D4EC50800F0070E16F805C00124DF
:1008500004FA0EF444EA0C04745591F802C01CF03A
:10086000020F1BD0930003F1804303F5C0430978C6
:10087000D3F8104524F44F3424F440740202C3F832
:1008800010450904D3F8100502F47C5201F44031FC
:100890000A430243C3F81025002070BD083A43FA0A
:1008A00082F2097892F85A3043EA811382F85A307A
:1008B000F2E71F2887BF1F4C00F01F0505464FF0C9
:1008C000A04404EB8504D4F8005725F00205C4F8D1
:1008D0000057B6E74FF0080C1A628EF830C0624637
:1008E0009C448CF8520096E74FF0090C8AE74FF0D1
:1008F000050C87E74FF0060C84E74FF0070C81E703
:100900001A6000228EF8302085E74FF0090C5A62F9
:100910008EF830C06246E3E75A6001228EF830203C
:1009200079E74FF0080C6DE74FF00A0C6AE700BF5B
:10093000D0370020000300502E38002030B4384C4F
:1009400004EB000C82B09CF93030072B12DD083B21
:1009500044FA83F393F85A309B09032B35D0012BCB
:100960000CBF4FF400324FF440321F2849D84FF0EB
:10097000A04336E0DAB2072A24D8980000F180407C
:1009800003F1400200F5C04052B29200D0F8105579
:1009900092B202F1804202F5C04245F00105C0F872
:1009A00010550020106012680192019A51B19CF913
:1009B000302054F822202AB11A49012202FA03F306
:1009C000C1F8043302B030BC70471F281DD84FF067
:1009D000A0421346D2F81025C24002F001020232B2
:1009E000120403EB8003D3F8001721F44031C3F85D
:1009F0000017D3F800170A43C3F8002702B030BC31
:100A0000704700F01F00084BEBE7074BD3F81025A9
:100A100000F01F00C24002F0010202321204F2E7AD
:100A2000D037002000600040000300501F288ABF1C
:100A3000054B4FF0A04300F01F00D3F8103523FA08
:100A400000F000F001007047000300502DE9F0476E
:100A5000002384B0CDE902331C4AD2F800110129E9
:100A600000F03B821E46194BD3F80421012A00F006
:100A70002582164BD3F80821012A00F01082134B6F
:100A8000D3F80C21012A00F0FB81104BD3F8102180
:100A9000012A00F0E6810D4BD3F81421012A00F061
:100AA000D1810A4BD3F81821012A00F0B881074BF5
:100AB000D3F81C21012A0BD0044BD3F87C21012A46
:100AC00000F02C8256BB04B0BDE8F0870060004007
:100AD000D3F804231106EFD50022C3F81C21D3F864
:100AE0001C110091D3F87C110098012946F0800672
:100AF00014D1C3F87C21D3F87C3101934FF0A0428C
:100B0000019BD2F82015CD4B0291C2F82015D3F8E5
:100B100020250392C3F8202546F00046C84F002444
:100B20000125A30003F180432E4203F5C0434FEAA1
:100B300045050BD0D3F8100557F82420D3F810152D
:100B4000C0F30520C1F3014102B190470134082CE4
:100B5000E7D1002EB7DABA4CB84E01254FF0A047C6
:100B600094F95A305A1C4BD0C3F3C20101F1100260
:100B70000DEB020103F0070211F808CC05FA02F2AE
:100B80001CEA020FD9B203F03F0039D01F2800F24F
:100B9000368103464FF0A04909EB830205FA03F3BF
:100BA000D2F800C7D2F800E72EF4403EC2F800E7C2
:100BB00004EB000ECCF3014C9EF930E0D2F800A714
:100BC00054F82E80BCF1020F0CBF4FF4403E4FF49E
:100BD000003E4EEA0A0EC2F800E7C9F82035B8F127
:100BE000000F0DD08909032900F08C81BCF1020FA0
:100BF00000F08581BCF1030F02D1022900F082814F
:100C000094F95B30581C4BD0C3F3C20101F11002C0
:100C10000DEB020103F0070211F808CC05FA02F20D
:100C20001CEA020FD9B203F03F0039D01F2800F2AE
:100C3000EA8003464FF0A04909EB830205FA03F36B
:100C4000D2F800C7D2F800E72EF4403EC2F800E721
:100C500004EB000ECCF3014C9EF930E0D2F800A773
:100C600054F82E80BCF1020F0CBF4FF4403E4FF4FD
:100C7000003E4EEA0A0EC2F800E7C9F82035B8F186
:100C8000000F0DD08909032900F04181BCF1020F4A
:100C900000F03A81BCF1030F02D1022900F0378144
:100CA00094F95C30591C4BD0C3F3C20101F110021E
:100CB0000DEB020103F0070211F808CC05FA02F26D
:100CC0001CEA020FD9B203F03F0039D01F2800F20E
:100CD0009E8003464FF0A04909EB830205FA03F317
:100CE000D2F800C7D2F800E72EF4403EC2F800E781
:100CF00004EB000ECCF3014C9EF930E0D2F800A7D3
:100D000054F82E80BCF1020F0CBF4FF4403E4FF45C
:100D1000003E4EEA0A0EC2F800E7C9F82035B8F1E5
:100D2000000F0DD08909032900F0F680BCF1020FF5
:100D300000F0EF80BCF1030F02D1022900F0EC803B
:100D400094F95D305A1C4AD0C3F3C20101F110027C
:100D50000DEB020103F0070211F808CC05FA02F2CC
:100D60001CEA020FD9B203F03F0038D01F2852D836
:100D700003464FF0A04909EB830205FA03F3D2F8CA
:100D800000C7D2F800E72EF4403EC2F800E704EBBB
:100D9000000ECCF3014C9EF930E0BCF1020F54F888
:100DA0002E80D2F800E70CBF4FF4403A4FF4003ADF
:100DB0004EEA0A0EC2F800E7C9F82035B8F1000F74
:100DC0000DD08909032900F09880BCF1020F00F0D2
:100DD0009180BCF1030F02D1022900F08E80D7F878
:100DE00020350293C7F82035D6F820250392134307
:100DF000C6F820257FF4B4AE04B0BDE8F08703F058
:100E00001F03B146C8E603F01F03B14614E703F021
:100E10001F03B14660E703F01F03B146ABE7D3F809
:100E2000042350067FF543AE0022C3F81821D3F8FF
:100E300018310093009B46F0400638E6000300504E
:100E4000D0370020D3F8042394067FF52AAE002281
:100E5000C3F81421D3F814310093009B46F0200608
:100E60001FE6D3F80423D5067FF515AE0022C3F89C
:100E70001021D3F810310093009B46F010060AE6CB
:100E8000D3F8042317077FF500AE0022C3F80C2126
:100E9000D3F80C310093009B46F00806F5E5D3F833
:100EA000042352077FF5EBAD0022C3F80821D3F8E5
:100EB00008310093009B46F00406E0E5D3F80423D4
:100EC00091077FF5D6AD0022C3F80421D3F8043191
:100ED0000093009B46F00206CBE5D2F8046316F0BF
:100EE00001063FF4C0ADC2F80031D2F800310093E2
:100EF000009BB8E501297FF472AFC0476FE7012975
:100F00007FF47EAEC0477BE601297FF4C9AEC047BF
:100F1000C6E601297FF414AFC04711E70022C3F8E9
:100F20007C21D3F87C3101934FF0A042019BD2F891
:100F30002015064B0291C2F82015D3F82025039204
:100F4000C3F82025002E3FF406AEE5E5000300506F
:100F50002DE9F04FDFF89C9100EB400609EBC60647
:100F600083B0F76A012F80468B4692464FEA4005D0
:100F700007D0022F54D04FB30027384603B0BDE846
:100F8000F08FB76A746AA74240F28580013F3F1B29
:100F9000366A574528BF5746321B974280F08680F5
:100FA00008F1010303EB430309EBC30359465868F7
:100FB0003A4620443C4401F0D1F9454409EBC509C7
:100FC0003846C9F8244003B0BDE8F08FB36A746AAC
:100FD000A3429CBF326A9B18013B1B1B9A45CCD88D
:100FE0002B1809EBC3031F6A3A1B924576D3461CA4
:100FF00006EB460609EBC60601927068204401F034
:10100000ADF95444019A7068E41B0BEB02012246CF
:1010100001F0A4F9454409EBC50557466C62ACE7FD
:1010200000F1010808EB4808756A4FEAC808002774
:10103000B36AAB4203F1FF3222D9346A531B5345E2
:1010400009EB0802A4EB050428BF53469C425068F4
:1010500028BF1C4628445946224601F07FF9336ACE
:1010600025449D42AAEB040A2744A3440DD075628F
:10107000BAF1000F81D0B36AAB4203F1FF32DCD882
:10108000346A2344013B5B1BD9E700257562BAF142
:10109000000FCDD171E7366A3744013F3F1B5745FA
:1010A00028BF5746321B9742FFF47AAF08F1010A76
:1010B0000AEB4A0A09EBCA0A5946DAF80400019217
:1010C000204401F04BF9BE1B019ADAF804003444C5
:1010D0000BEB0201224601F041F96EE7431C03EBE2
:1010E000430309EBC303524658682044544401F0BB
:1010F00035F98FE7483A002010B5134A134C1448CD
:101100001449C4E906204FF400709FED0D7B206266
:1011100011480023C4E912201022E01DA36263627B
:10112000E362A3656365E36584ED047B226500F0FB
:10113000D5FF0A49204600F0D1FF2023A37110BD3E
:10114000020000000200000028A00200483A00202F
:101150004838002034A002003838002038A00200AF
:101160006DDF704779DF70477DDF704764DF704760
:101170002DE9F04F85B098460E9D0388BDF83C9050
:1011800016462A880192002B38D0002704468A464A
:10119000BB4602E022885A4526DD616851F82B00E3
:1011A000039000220DF10B0103A80BF1010BFFF7D7
:1011B000DDFF20BB9DF80B20B242EBD12A880DF158
:1011C0000B0103A8F7B1B7184F4529DC4244FFF7DC
:1011D000CDFFA0B929889DF80B200A442A802288D7
:1011E0005A454FF00107D8DC47B12B88019A013BE3
:1011F0009B1A9BB2FF2B13D808F80230002005B0D1
:10120000BDE8F08F571C324402324A45BFB207DCBA
:101210002F8008F807A02A88013292B22A80D5E7E9
:101220000C2005B0BDE8F08F2DE9F04700231788AA
:10123000138090F82D3086B0144606460D46002BDC
:1012400040F0CC80B278002A40F0F980F278A2B168
:10125000D91CB94200F28B810221E9542388012173
:101260000B449BB22380E95423880B449BB2238018
:10127000EA5423880B449BB223807268AAB192F986
:101280000010DA1CBA4200F272810222EA5423886A
:1012900001339BB20A222380EA54238801339BB294
:1012A0002380E9542388013323803389002B40F0C5
:1012B000E880338A002B40F0FE80338B002B40F017
:1012C0009881336A002B45D0B4F800E00EF1060295
:1012D000BA4200F24C811A88052A40F284816FF4E8
:1012E000486802EB080189B24FF27D30814240F23A
:1012F0007A815988052940F276816FF4486C8C44D4
:101300001FFA8CFC844540F26E814FF6FF708242DA
:1013100002D08A4200F26781052205F80E20228859
:10132000013292B212212280A9542288013292B253
:1013300022801988A9542A44090A5170228802324D
:1013400092B222805B88AB542A441B0A53702388D4
:1013500002332380736A002B31D09988B4F800C01F
:10136000881C0CF102020244BA4200F20081FE28FD
:1013700000F2FD80033105F80C102288013292B290
:10138000FF212280A9542288013292B2228019883A
:10139000A9542A44090A51702088023080B2208062
:1013A0009A8862B199680393002900F01C8128444F
:1013B00000F0D4FF039B9A8823881344238096F877
:1013C0002C30002B40F091803378002B40F0D580FA
:1013D0004FF00008404606B0BDE8F087082F40F205
:1013E000C68004A8FFF7BCFE80460028F2D12388FF
:1013F0000822EA54238801339BB21B222380EA543B
:101400002088013080B2062220800DF1110128448D
:1014100000F0A4FF23889DF8102006339BB2012A18
:1014200088BF0122238094BF05F80380EA542388F3
:1014300001339BB22380B278002A3FF407AF043314
:10144000BB4200F2948004A8FFF78CFE804600287F
:10145000C0D123880322EA54238801339BB2192286
:101460002380EA542388BDF8102001339BB22380E7
:10147000EA542B44120A5A70238802339BB2238009
:10148000E4E6022206F10809CDE900472B461146A1
:101490004846FFF76DFE804600289BD1CDE9004706
:1014A00048462B4610220621FFF762FE80460028A0
:1014B0003FF4FFAE8EE706F11009CDE900472B4659
:1014C000022203214846FFF753FE8046002881D1BF
:1014D000CDE9004748462B4610220721FFF748FE7A
:1014E000804600283FF4E9AE74E7B16A00297AD05B
:1014F0004FF000094B464FF0160A2CE02388E854C1
:10150000238801339BB2238005F803A0238801338D
:101510009BB2238031F82220EA542B44120A5A70DD
:101520002088023080B22080B8F80420284452B1CC
:10153000D8F80810002956D000F010FFB8F80420A1
:1015400023881344238096F82C205FFA89F39A426B
:101550007FF63AAFB16A03EB430201EB820809F16F
:101560000109B8F80430D81C0233FE2BC6D94FF05D
:101570000C08404606B0BDE8F0873288012A32D018
:101580002288901CB842F2D8012B04D17378023320
:1015900013449F42EBD3023FBF1ABFB2284404A9B1
:1015A000ADF81070FFF7E0FD804600287FF412AF21
:1015B0003378022B38D07178BDF8102091423CD39B
:1015C000974241D317460922FE2FD0D82388791C91
:1015D000E954238801339BB22380EA5423880133E2
:1015E0001F442780F4E64FF00708404606B0BDE8E8
:1015F000F08706F11809CDE900472B460222142195
:101600004846FFF7B5FD804600287FF4E3AECDE9FC
:10161000004748462B4610221521FFF7A9FD8046BA
:1016200000283FF44EAED5E6BDF81030BB4202D8DC
:101630001F460922C8E70822C6E7012BFBD18F42CB
:1016400002D30F460822BFE70822BFE700B30129F3
:101650004FF000030FDD00EB030C9CF801C0944534
:1016600009D010F803C00CF1010C63449BB203F1E4
:10167000010C6145EFDC8B4209D2C25C3AB1013A00
:1016800092B222B102339BB21A44914201DA002095
:1016900070471844704700BF1AB3002370B5044662
:1016A00015461360B8B10368ABB1C38813F00306E5
:1016B0000FD1084600F086FCC0B214280FD0237961
:1016C00083420AD9E288236800FB02332B6030464C
:1016D00070BD072070BD0E2070BD042070BD0520B8
:1016E00070BD0E20704700BF826842B110B504463D
:1016F00043690168006998470023A36010BD7047E3
:101700000EB400B582B0039921B104AB01AA0193D4
:1017100000F0B2F802B05DF804EB03B0704700BF10
:101720002DE9F04F164683B0B142DDF830900D9AA6
:101730000F4605469A46C0F09A800B464FF00108C6
:10174000B3FBF6F39E4208F10108F9D9D04538BF42
:10175000D04612F00103019302D1B9F1000F65D117
:10176000AA68BAF1010F4FF0010406D90AF1FF3A55
:10177000BAF1010F06FB04F4F8D8B7FBF4F39E426C
:1017800005D806FB04F4B7FBF4F39E42F9D9DFF861
:10179000E4A007E0B442B4FBF6F31AD3AA681C46EF
:1017A000B7FBF3F31AF803B0BBF10A0F04FB13778E
:1017B0002DD02B68511CA96003F802B0D5E9013285
:1017C0009A42E7D32846FFF78FFFB4FBF6F3B44203
:1017D000E4D2019BC3B1B9F1000F15D0C14513D9B3
:1017E000202401E0C1450FD0AB682A68591CA960CC
:1017F000D454D5E901329A4209F1FF39F2D328468F
:10180000FFF772FFC145EFD103B0BDE8F08F511C67
:101810002B68A9604FF00D019954D5E901329A4225
:10182000C7D32846FFF760FFAA68C2E7930718D41A
:101830002024C14594D9AA682968531CAB608C54F4
:10184000D5E901128A4209F1FF3905D2B9F1000F39
:1018500087D0C145F0D184E72846FFF745FFAA6845
:10186000F4E7BAF1000F14BF20243024E1E74FF071
:1018700001086BE740A00200002900F070822DE90A
:10188000F04F0C4685B014F8015B0646002D7BD066
:1018900091464FF00D0A10E00A2D00F09080B368D9
:1018A0003268591CB160D554D6E901329A4280F0B1
:1018B00082802578002D67D00134252DECD10027BA
:1018C000224614F8013B2D2B6FD0302B70D02B2BE0
:1018D00064D02A2B00F08280A3F1300109294FF057
:1018E00000050BD805EB850503EB450512F8013F14
:1018F000A3F130010929A5F13005F3D92E2B1446A7
:1019000077D04FF0000803F0FB02682A43D0252B64
:1019100000F08E81583BDAB2202A31D8202B2FD804
:10192000DFE813F021002E002E002E002E002E00E6
:101930002E002E002E002E002E0004017D002E0011
:101940002E002E002E007D002E002E002E002E00D8
:101950002E002E00B5002E002E0021012E001C01AD
:101960002E002E002100D9F8001043461022081D39
:10197000C9F8000009683046CDE90057FFF7D0FEEE
:1019800001342578002D97D1337B002B40F04A811C
:1019900005B0BDE8F08F14F8013FB4E7224614F813
:1019A000013B2D2B47F004078FD147F0010787E754
:1019B00047F0020784E73046FFF796FE79E7B36801
:1019C0003268591CB16002F803A0D6E901239342A2
:1019D000FFF466AF3046FFF787FE60E7D9F80030C6
:1019E000191DC9F800101D6853782E2B02F101044F
:1019F00087D16378A3F13002092A04F101044FF082
:101A0000000880D808EB880803EB480814F8013F69
:101A1000A3F13002092AA8F13008F3D973E7D9F805
:101A200000301A1DC9F80020D3F800B08BEAEB7320
:101A3000A3EBEB73092B40F30D82B74801211A4643
:101A4000632AA0FB03C301F101014FEAD303F6DCD3
:101A5000414538BF4146002D40F020810025BBF1B3
:101A6000000FC0F2908107F00403002B40F0E181E9
:101A700007F00303022B00F0D481CDE90057434661
:101A800059460A223046FFF74BFE013479E7D9F870
:101A900000301A1DC9F80020D3F80080B3683268FE
:101AA000581C3021B060D154D6E90123934280F014
:101AB0002581591C3268B1607821D154D6E90132B0
:101AC0009A4280F01681B8F10F0F474603D943467A
